:100000000C9434000C9451000C9451000C94510049
:100010000C9451000C9451000C9451000C9451001C
:100020000C9451000C9451000C9451000C9451000C
:100030000C9451000C9451000C9451000C945100FC
:100040000C9451000C9451000C9451000C945100EC
:100050000C9451000C9451000C9451000C945100DC
:100060000C9451000C94510011241FBECFEFD8E026
:10007000DEBFCDBF11E0A0E0B1E0E6E4F9E002C0F0
:1000800005900D92A03DB107D9F721E0A0EDB1E0B8
:1000900001C01D92AB3DB207E1F70E9404040C942D
:1000A000A1040C94000008950895FF920F931F93EC
:1000B000CF93DF93F62E8C010E5F1F4FEC01A296BB
:1000C0000C171D0769F0D8018D919D918D01DC0100
:1000D000ED91FC910190F081E02D6F2D0995F0CF0D
:1000E000DF91CF911F910F91FF9008950F931F9370
:1000F000CF93DF938C010E5F1F4FEC01A2960C177C
:100100001D0761F0D8018D919D918D01DC01ED916C
:10011000FC910280F381E02D0995F1CFDF91CF9121
:100120001F910F910895FFCF8F929F92AF92BF9230
:10013000CF92DF92EF92FF920F931F93CF93DF93B3
:10014000CDB7DEB7FC0183EA91E0918380837383AE
:100150006283558344833783268311870087F38620
:10016000E286D586C486B786A686918A808A8F85E0
:100170009889938B828B89899A89958B848B8B89BB
:100180009C89978B868B8D899E89918F808F8F8993
:10019000988D938F828F898D9A8D958F848F8B8D7B
:1001A0009C8D978F868F8D8D9E8D91A380A3CF017F
:1001B000DF91CF911F910F91FF90EF90DF90CF9043
:1001C000BF90AF909F908F900895823051F0833010
:1001D00071F0813049F064E270E08AE691E00E94BB
:1001E000930088E290E0089585E290E008958BE224
:1001F00090E00895823051F0833071F0813049F001
:1002000060E370E08AE691E00E94930086E290E06D
:10021000089583E290E0089589E290E008958230A5
:1002200051F0833071F0813049F06CE370E08AE680
:1002300091E00E94930087E290E0089584E290E0CC
:1002400008958AE290E00895833069F4611104C052
:100250008091C1008F7E05C0613029F48091C1007A
:10026000877F8093C1000895CF93DF938091D00161
:10027000811105C081E0809381008093D00180913D
:1002800084002091850090E0FC01F22B8091D9013F
:100290009091DA01E817F90730F52091D1013091FA
:1002A000D2014091D3015091D4016091D501709158
:1002B000D6018091D7019091D8014F5F5F4F6F4F6A
:1002C0007F4F8F4F9F4F2093D1013093D2014093A6
:1002D000D3015093D4016093D5017093D6018093DC
:1002E000D7019093D801F093DA01E093D901CF01BF
:1002F0002091D101282B3091D201392B4091D3018B
:100300005091D4016091D5017091D6018091D701AF
:100310009091D801DF91CF9108950F930E943401FD
:1003200004E00E9473040F9108954F925F926F92C0
:100330007F928F929F92AF92BF92CF92DF92EF9275
:10034000FF920F931F93CF93DF934B015C010E94A9
:100350008D01F22FE32F6A017B018C01240135010D
:10036000770C4408542C32019401A501642D742D9E
:10037000842D942DAF2EBE2E0E948F04D22FC32F1A
:100380002A013B014C010E948D0159016A017B0148
:100390008C012D2F3C2FA201B301C4010E949804AF
:1003A00009F088F7DF91CF911F910F91FF90EF90A7
:1003B000DF90CF90BF90AF909F908F907F906F9085
:1003C0005F904F900895CF92DF92EF92FF926B0172
:1003D0007C011C141D041E041F0464F468EE73E009
:1003E00080E090E00E94950181E0C81AD108E10800
:1003F000F108EFCFFF90EF90DF90CF9008950C942D
:10040000E301EC016B01E12CF12CE881F981019011
:10041000F081E02D61E0CE010995E881F98102804B
:10042000F381E02DCE010995C701B6010E94FF01BD
:10043000E881F9810190F081E02D60E0CE0109951D
:10044000E881F9810280F381E02DCE010995C70191
:10045000B6010E94FF01D9CFFC018781806480939F
:100460007C0080917A00806480937A0080917A0089
:1004700086FDFCCF609178007091790080E090E07B
:1004800008950895DC011496ED91FC911597208153
:1004900016968C91922F982381E009F480E00895BC
:1004A0000895DC011296ED91FC91139714968C91AE
:1004B0009081662311F0892B02C080958923808367
:1004C00008950895DC0112968D919C911397DC019B
:1004D000ED91FC910190F081E02D099591E0892743
:1004E0000895DC0112968D919C911397DC01ED919A
:1004F000FC910280F381E02D0994CF92DF92EF927C
:10050000FF920F931F93CF93DF93EC018A819B811E
:10051000DC01ED91FC910190F081E02D0995EA81DB
:10052000FB81038114812581368168017901F6946C
:10053000E794D794C79421E0C616D706E806F906D3
:1005400008F020E0822FDF91CF911F910F91FF9053
:10055000EF90DF90CF900895DC0112968D919C91E1
:100560001397DC01ED91FC910280F381E02D099459
:10057000FC018AE082838FEF93E0A0E0B0E0838308
:100580009483A583B6838BEA91E09183808367830C
:1005900080E480937C0087E880937A0008950F932D
:1005A0001F93CF93DF93EC01162F042F83EB91E081
:1005B00099838883862F0E94E5009B838A83812FFD
:1005C0000E94FA009D838C8381E0002E01C0880F79
:1005D0000A94EAF78E83602F812F0E942401812FD5
:1005E0000E940F01FC0120819E81909592239083AF
:1005F000DF91CF911F910F9108950F931F93CF9388
:10060000DF93EC01162F042F8BEB91E09983888305
:10061000862F0E94E5009B838A8381E0002E01C023
:10062000880F0A94EAF78C83602F812F0E9424019F
:10063000812F0E940F01FC0180819C81982B908367
:10064000DF91CF911F910F91089523EC31E0DC01F0
:1006500011963C932E9313967C936E931297DB0125
:100660001296ED91FC911397908116968C91892B9F
:10067000808308958F929F92AF92BF92CF92DF9224
:10068000EF92FF920F931F93CF93DF93EC0141E022
:1006900062E00E94CF024E0187E0880E911C42E08A
:1006A00062E0C4010E94CF025E018EE0A80EB11C80
:1006B00043E062E0C5010E94CF026E0185E1C80EF1
:1006C000D11C44E062E0C6010E94CF027E018CE1B1
:1006D000E80EF11C66E0C7010E94B8028E010C5DB5
:1006E0001F4F67E0C8010E94B80243E063E0CE01FB
:1006F0008C960E94FD0260E0CE01C1960E94B80275
:10070000BE01CE01C9960E942503B401CE01CD964B
:100710000E942503B501CE018F5B9F4F0E942503E8
:10072000B601CE018B5B9F4F0E942503FE01E75B64
:10073000FF4F8BEC91E091838083F382E2823496C9
:10074000918380831383028343E061E0CE018F5A5B
:100750009F4F0E94FD0245E061E0CE018A5A9F4F03
:100760000E94FD0244E061E0CE01855A9F4F0E9445
:10077000FD0242E063E0CE01805A9F4F0E94FD02DD
:1007800047E063E0CE018B599F4F0E94FD0244E099
:1007900063E0CE0186599F4F0E94FD0240E061E078
:1007A000CE0181599F4F0E94FD0245E063E0CE01DA
:1007B0008C589F4F0E94FD0241E061E0CE018758B6
:1007C0009F4F0E94FD0246E063E0CE0182589F4F9A
:1007D0000E94FD0242E061E0CE018D579F4F0E94D2
:1007E000FD0245E062E0CE0188579F4FDF91CF9137
:1007F0001F910F91FF90EF90DF90CF90BF90AF903F
:100800009F908F900C94FD028F929F92AF92BF9217
:10081000CF92DF92EF92FF920F931F93CF93DF93CC
:10082000CDB7DEB7CF5AD1090FB6F894DEBF0FBEF1
:10083000CDBFCE0101960E943A0361E0CE018E5AEF
:100840009F4F0E94510280E091E09F938F939F936E
:100850008F939F938F939F938F939F938F939F9348
:100860008F939F938F93CE0187579F4F9F938F9323
:1008700005974C0105975C0105976C0105977C0174
:100880008E0100591F4F9E0125593F4FAE014A5915
:100890005F4FBE016F597F4F49960E94940068ECEC
:1008A00070E0CE0182579F4F0E9401020FB6F8946C
:1008B000DEBF0FBECDBF80E090E0C155DF4F0FB669
:1008C000F894DEBF0FBECDBFDF91CF911F910F9186
:1008D000FF90EF90DF90CF90BF90AF909F908F9060
:1008E000089597FB10F8169400080F93083098F0BD
:1008F0000850232F342F452F562F672F782F892FFD
:10090000902DF4CF05949795879577956795579592
:100910004795379527950A95AAF70F9108952A0DBF
:100920003B1D4C1D5D1D6E1D7F1D801F911F089579
:100930002A153B054C055D056E057F05800791076F
:060940000895F894FFCFBA
:100946009B015B003A000A546573742073756363F8
:100956006573733A20002074657374207765726539
:10096600207375636365737366756C6C0A000A544D
:10097600455354204641494C5552453A200020746F
:100986006573742077657265204E4F5420737563C6
:100996006365737366756C6C0A005B7472616E7363
:1009A600706172656E745D002C002E2E2F2E2E2F18
:1009B6002E2E2F6C6962726172792F74617267656F
:1009C60074732F68776C69622D61746D6567613326
:1009D60032382E687070000000000053005400008A
:1009E60000000055007600000000002C02410200C5
:1009F60000000042025002000000005102610200A5
:100A060000000062027102000000007D02AC0200DC
:00000001FF
