:100000000C9434000C9451000C9451000C94510049
:100010000C9451000C9451000C9451000C9451001C
:100020000C9451000C9451000C9451000C9451000C
:100030000C9451000C9451000C9451000C945100FC
:100040000C9451000C9451000C9451000C945100EC
:100050000C9451000C9451000C9451000C945100DC
:100060000C9451000C94510011241FBECFEFD8E026
:10007000DEBFCDBF11E0A0E0B1E0E4ECF9E002C0EA
:1000800005900D92AC3DB107D9F721E0ACEDB1E0A0
:1000900001C01D92A73EB207E1F70E9444040C94F0
:1000A000E0040C94000008950895FC0182810895F5
:1000B000EF92FF920F931F93CF937C018B01C0E0CF
:1000C000D70112968C91C817A0F4F701EC0FF11D1F
:1000D000EC0FF11D83819481602F6170DC01ED9143
:1000E000FC910190F081E02D099516950795CF5F61
:1000F000E7CFCF911F910F91FF90EF9008950F934D
:100100001F93CF938C01C0E0D80112968C91C81731
:1001100080F4F801EC0FF11DEC0FF11D8381948147
:10012000DC01ED91FC910280F381E02D0995CF5F18
:10013000EBCFCF911F910F910895DC0112968D9115
:100140009C911397DC01ED91FC910190F081E02DE1
:100150000994CF93DF93EC018A819B81DC01ED91BF
:10016000FC910280F381E02D09958A819B81DC015D
:10017000ED91FC910480F581E02DDF91CF91099400
:100180000895FFCF8F929F92AF92BF92CF92DF924E
:10019000EF92FF920F931F93CF93DF93CDB7DEB70C
:1001A000FC0183EA91E091838083748363835683A7
:1001B00045833087278312870187F486E386D686B6
:1001C000C586B08AA786928A818A8F859889948B02
:1001D000838B89899A89968B858B8B899C89908F53
:1001E000878B8D899E89928F818F8F89988D948F2F
:1001F000838F898D9A8D968F858F8B8D9C8D90A303
:10020000878F8D8D9E8D92A381A3128282818031F2
:1002100078F4DF01A80FB11DA80FB11D13962D9121
:100220003C9114972050314019F08F5F8283EECFBC
:10023000CF01DF91CF911F910F91FF90EF90DF9051
:10024000CF90BF90AF909F908F900895823051F0E3
:10025000833071F0813049F064E270E08AE691E029
:100260000E94C10088E290E0089585E290E0089540
:100270008BE290E00895823051F0833071F081304C
:1002800049F060E370E08AE691E00E94C10086E2F6
:1002900090E0089583E290E0089589E290E0089567
:1002A000823051F0833071F0813049F06CE370E0BE
:1002B0008AE691E00E94C10087E290E0089584E21E
:1002C00090E008958AE290E00895833069F4611126
:1002D00004C08091C1008F7E05C0613029F48091F7
:1002E000C100877F8093C1000895CF93DF938091F1
:1002F000DC01811105C081E0809381008093DC01E5
:10030000809184002091850090E0FC01F22B809187
:10031000E5019091E601E817F90730F52091DD013C
:100320003091DE014091DF015091E0016091E101E7
:100330007091E2018091E3019091E4014F5F5F4F82
:100340006F4F7F4F8F4F9F4F2093DD013093DE0122
:100350004093DF015093E0016093E1017093E2016B
:100360008093E3019093E401F093E601E093E501CB
:10037000CF012091DD01282B3091DE01392B4091F6
:10038000DF015091E0016091E1017091E201809103
:10039000E3019091E401DF91CF9108950F930E94C2
:1003A000750104E00E94B2040F9108954F925F928C
:1003B0006F927F928F929F92AF92BF92CF92DF9275
:1003C000EF92FF920F931F93CF93DF934B015C014A
:1003D0000E94CE01F22FE32F6A017B018C012401E0
:1003E0003501770C4408542C32019401A501642D89
:1003F000742D842D942DAF2EBE2E0E94CE04D22FAC
:10040000C32F2A013B014C010E94CE0159016A0110
:100410007B018C012D2F3C2FA201B301C4010E944E
:10042000D70409F088F7DF91CF911F910F91FF90CA
:10043000EF90DF90CF90BF90AF909F908F907F9084
:100440006F905F904F900895CF92DF92EF92FF925E
:100450006B017C011C141D041E041F0464F468EE6F
:1004600073E080E090E00E94D60181E0C81AD108D4
:10047000E108F108EFCFFF90EF90DF90CF90089563
:100480000C942402CF93DF9300D000D0CDB7DEB719
:100490002DEA31E03A8329839C838B83AA24A39499
:1004A000B12C6B01E12CF12C10E0CE0101960E94E1
:1004B0009D001817C8F7B501012E02C0660F771FFF
:1004C0000A94E2F7CE0101960E94A900C701B60185
:1004D0000E9440021F5FE9CFFC0187818064809306
:1004E0007C0080917A00806480937A0080917A0009
:1004F00086FDFCCF609178007091790080E090E0FB
:1005000008950895DC011496ED91FC9115972081D2
:1005100016968C91922F982381E009F480E008953B
:100520000895DC011296ED91FC91139714968C912D
:100530009081662311F0892B02C0809589238083E6
:1005400008950895DC0112968D919C911397DC011A
:10055000ED91FC910190F081E02D099591E08927C2
:100560000895DC0112968D919C911397DC01ED9119
:10057000FC910280F381E02D0994CF92DF92EF92FB
:10058000FF920F931F93CF93DF93EC018A819B819E
:10059000DC01ED91FC910190F081E02D0995EA815B
:1005A000FB81038114812581368168017901F694EC
:1005B000E794D794C79421E0C616D706E806F90653
:1005C00008F020E0822FDF91CF911F910F91FF90D3
:1005D000EF90DF90CF900895DC0112968D919C9161
:1005E0001397DC01ED91FC910280F381E02D0994D9
:1005F000FC018AE082838FEF93E0A0E0B0E0838388
:100600009483A583B68387EB91E09183808367838E
:1006100080E480937C0087E880937A0008950F93AC
:100620001F93CF93DF93EC01162F042F8FEB91E0F4
:1006300099838883862F0E9426019B838A83812F3A
:100640000E943B019D838C8381E0002E01C0880FB6
:100650000A94EAF78E83602F812F0E946501812F13
:100660000E945001FC0120819E81909592239083ED
:10067000DF91CF911F910F9108950F931F93CF9307
:10068000DF93EC01162F042F87EC91E09983888388
:10069000862F0E9426019B838A8381E0002E01C061
:1006A000880F0A94EAF78C83602F812F0E946501DE
:1006B000812F0E945001FC0180819C81982B9083A6
:1006C000DF91CF911F910F9108952FEC31E0DC0164
:1006D00011963C932E9313967C936E931297DB01A5
:1006E0001296ED91FC911397908116968C91892B1F
:1006F000808308958F929F92AF92BF92CF92DF92A4
:10070000EF92FF920F931F93CF93DF93EC0141E0A1
:1007100062E00E940F034E0187E0880E911C42E0C8
:1007200062E0C4010E940F035E018EE0A80EB11CBE
:1007300043E062E0C5010E940F036E0185E1C80E2F
:10074000D11C44E062E0C6010E940F037E018CE1EF
:10075000E80EF11C66E0C7010E94F8028E010C5DF4
:100760001F4F67E0C8010E94F80243E063E0CE013A
:100770008C960E943D0360E0CE01C1960E94F80273
:10078000BE01CE01C9960E946503B401CE01CD968B
:100790000E946503B501CE018F5B9F4F0E946503E8
:1007A000B601CE018B5B9F4F0E946503FE01E75BA4
:1007B000FF4F87ED91E091838083F382E28234964C
:1007C000918380831383028343E061E0CE018F5ADB
:1007D0009F4F0E943D0345E061E0CE018A5A9F4F42
:1007E0000E943D0344E061E0CE01855A9F4F0E9484
:1007F0003D0342E063E0CE01805A9F4F0E943D03DB
:1008000047E063E0CE018B599F4F0E943D0344E0D7
:1008100063E0CE0186599F4F0E943D0340E061E0B6
:10082000CE0181599F4F0E943D0345E063E0CE0118
:100830008C589F4F0E943D0341E061E0CE018758F4
:100840009F4F0E943D0346E063E0CE0182589F4FD8
:100850000E943D0342E061E0CE018D579F4F0E9410
:100860003D0345E062E0CE0188579F4FDF91CF9175
:100870001F910F91FF90EF90DF90CF90BF90AF90BE
:100880009F908F900C943D038F929F92AF92BF9256
:10089000CF92DF92EF92FF920F931F93CF93DF934C
:1008A000CDB7DEB7C05BD1090FB6F894DEBF0FBE7F
:1008B000CDBFCE0101960E947A0361E0CE01845A39
:1008C0009F4F0E94910280E091E09F938F939F93AE
:1008D0008F939F938F939F938F939F938F939F93C8
:1008E0008F939F938F939F938F93CE0180599F4FA8
:1008F0004C010F965C0105966C0105967C018E01FA
:1009000006581F4F9E0125593F4FAE014A595F4F70
:10091000BE016F597F4F05960E94C20062E370E0EE
:10092000CE0182579F4F0E9442020FB6F894DEBF5D
:100930000FBECDBF80E090E0C055DF4F0FB6F894FA
:10094000DEBF0FBECDBFDF91CF911F910F91FF9002
:10095000EF90DF90CF90BF90AF909F908F900895D1
:1009600097FB10F8169400080F93083098F0085081
:10097000232F342F452F562F672F782F892F902D17
:10098000F4CF0594979587957795679557954795F3
:10099000379527950A95AAF70F9108952A0D3B1DC3
:1009A0004C1D5D1D6E1D7F1D801F911F08952A1512
:1009B0003B054C055D056E057F0580079107089591
:0409C000F894FFCFD9
:1009C4009B015B003A000A5465737420737563637A
:1009D4006573733A200020746573742077657265BB
:1009E400207375636365737366756C6C0A000A54CF
:1009F400455354204641494C5552453A20002074F1
:100A04006573742077657265204E4F542073756347
:100A14006365737366756C6C0A005B7472616E73E4
:100A2400706172656E745D002C002E2E2F2E2E2F99
:100A34002E2E2F6C6962726172792F7461726765F0
:100A440074732F68776C69622D61746D65676133A7
:100A540032382E687070000000000053005400000B
:100A6400000000550058007F00000000009D00A910
:100A740000C000000000006C02810200000000823F
:100A8400029002000000009102A10200000000A2F6
:0C0A940002B10200000000BD02EC0200F4
:00000001FF
