:100000000C9434000C9451000C9451000C94510049
:100010000C9451000C9451000C9451000C9451001C
:100020000C9451000C9451000C9451000C9451000C
:100030000C9451000C9451000C9451000C945100FC
:100040000C9451000C9451000C9451000C945100EC
:100050000C9451000C9451000C9451000C945100DC
:100060000C9451000C94510011241FBECFEFD8E026
:10007000DEBFCDBF11E0A0E0B1E0E4E7FDE002C0EB
:1000800005900D92A437B107D9F721E0A4E7B1E0BC
:1000900001C01D92A038B207E1F70E94FE050C9442
:1000A000B8060C94000008950895823051F0833012
:1000B00071F0813049F064E270E080E091E00E94EC
:1000C0004F0388E290E0089585E290E008958BE286
:1000D00090E00895823051F0833071F0813049F022
:1000E00060E370E080E091E00E944F0386E290E0E0
:1000F000089583E290E0089589E290E008958230C7
:1001000051F0833071F0813049F06CE370E080E0B1
:1001100091E00E944F0387E290E0089584E290E02E
:1001200008958AE290E00895833069F4611104C073
:100130008091C1008F7E05C0613029F48091C1009B
:10014000877F8093C1000895FC018781806480933C
:100150007C0080917A00806480937A0080917A009C
:1001600086FDFCCF609178007091790080E090E08E
:1001700008958F929F92AF92BF92CF92DF92EF92AB
:10018000FF920F931F93CF93DF938C010F551F4F57
:10019000C12CD12C7601EC01E39684E6882E912CBB
:1001A000A12CB12CCE010E94A400A50194010E94B3
:1001B0006606C216D306E406F50690F5CE010E9447
:1001C000A400A50194010E946606D701C60102960B
:1001D000A11DB11D281739074A075B0708F5809153
:1001E000740190E00196F801918380838FEFC81A23
:1001F000D80AE80AF80A0E5F1F4FE9E0CE16D104CC
:10020000E104F10479F6DF91CF911F910F91FF90F6
:10021000EF90DF90CF90BF90AF909F908F90089518
:10022000F80111821082E2CFDC011296ED91FC916F
:10023000139714968C919081662311F0892B02C03C
:100240008095892380830895DC0112968D919C917D
:100250001397DC01ED91FC910190F081E02D09955F
:1002600091E0892708954F925F926F927F929F92BB
:10027000AF92BF92CF92DF92EF92FF920F931F93B4
:10028000CF93DF93FC01ED54FF4F208121115AC021
:10029000EC018C010F551F4FC12CD12C76015C0154
:1002A00083E3A80EB11C84E6482E512C612C712CDE
:1002B000EB9699249394C5010E94A400A301920196
:1002C0000E946606C216D306E406F50668F5C50167
:1002D0000E94A400A30192010E946606D701C601F4
:1002E0000296A11DB11D281739074A075B07E0F4E4
:1002F000CE010E9424018823B9F080917401282F37
:1003000030E02F5F3F4FF8013183208389258093B0
:100310007401CE010E9424018111FBCF62E370E0E1
:1003200080E090E00E941B04FFEFCF1ADF0AEF0A83
:10033000FF0A0E5F1F4F89E0C816D104E104F104E3
:1003400009F0B9CFDF91CF911F910F91FF90EF90FE
:10035000DF90CF90BF90AF909F907F906F905F9015
:100360004F900895DC01AF55BF4FFB01EF55FF4F94
:100370008D549F4F2D913D91232B31F02081318160
:10038000232B11F081E008953296A817B90791F751
:1003900080E00895CF93DF938617970759F0EC011B
:1003A0000E94B201CD54DF4F882319F081E0888389
:1003B00001C01882DF91CF9108950F931F93CF93BF
:1003C000DF93CDB7DEB72F813885A985BA852A1787
:1003D0003B0749F48B859C852817390721F42115A3
:1003E000310509F063C06D857E858F859889681712
:1003F000790749F449895A896417750721F4611509
:10040000710509F053C04B895C89ED89FE894E174F
:100410005F0749F40F89188D4017510721F44115E2
:10042000510509F043C02617370731F42417350763
:1004300019F421153105D1F5A817B90729F48E173C
:100440009F0711F4009791F56B857C85E989FA89FE
:100450006E177F0741F4EF89F88D6E177F0719F447
:100460006115710519F52817390739F42F89388D69
:100470008217930711F40097C9F48617970729F498
:100480008417950711F4892B89F4FE013796CE0164
:10049000499621913191232B31F0E817F907C9F7DB
:1004A00083E090E009C080E090E006C09091740184
:1004B00081E0892790E00196DF91CF911F910F9104
:1004C0000895EF92FF920F931F93CF93DF93EC0168
:1004D0007A01890181E0672B09F480E0682FCE0161
:1004E0008D5A9F4F0E94140161E0EF2809F460E0EB
:1004F000CE01835A9F4F0E94140161E0012B09F441
:1005000060E0CE01885A9F4FDF91CF911F910F91EC
:10051000FF90EF900C941401CF92DF92EF92FF9234
:100520000F931F93CF93DF938C01E12CF12C6C017F
:1005300081EAC80ED11CE801C157DF4FE114F10474
:1005400049F48A899B890197D1F420E030E041E0A9
:1005500050E012C0B1E0EB16F10449F48A899B899E
:10056000029769F421E030E040E050E005C08A895C
:100570009B89039721F430C060E070E033C088812C
:100580009981DC01ED91FC910190F081E02D60E01A
:10059000099589919991DC01ED91FC910280F3819B
:1005A000E02D0995CC15DD0549F661E070E080E0AD
:1005B00090E00E941B04BFEFEB1AFB0A83E0E816F1
:1005C000F10409F0B8CFDF91CF911F910F91FF9007
:1005D000EF90DF90CF90089520E030E040E050E0D1
:1005E00061E070E0C8010E94610288819981DC01AC
:1005F000ED91FC910190F081E02D61E0C9CFCF92A7
:10060000DF92EF92FF920F931F93CF93DF938C01B2
:10061000EC01CF55DF4F2DB73EB7225131090FB650
:10062000F8943EBF0FBE2DBFADB7BEB7119682E1A5
:10063000FE0101900D928A95E1F7C8010E94DD014B
:100640002DB73EB72E5E3F4F0FB6F8943EBF0FBE9C
:100650002DBF18161906D4F4680133EBC30ED11C54
:10066000FE0181939193EC15FD05D9F788EEE82EF4
:1006700083E0F82EC8010E948C0281E0E81AF1089C
:10068000C9F719921992CC16DD06D9F7DF91CF91EF
:100690001F910F91FF90EF90DF90CF900895FFCFC3
:1006A000CF93DF9380917501811105C081E0809324
:1006B000810080937501809184002091850090E0F5
:1006C000FC01F22B80917E0190917F01E817F907E0
:1006D00030F5209176013091770140917801509169
:1006E000790160917A0170917B0180917C019091F8
:1006F0007D014F5F5F4F6F4F7F4F8F4F9F4F209315
:10070000760130937701409378015093790160939B
:100710007A0170937B0180937C0190937D01F0932B
:100720007F01E0937E01CF0120917601282B30914B
:100730007701392B409178015091790160917A01CC
:1007400070917B0180917C0190917D01DF91CF912F
:1007500008950F930E94500304E00E948A060F91AF
:1007600008954F925F926F927F928F929F92AF9275
:10077000BF92CF92DF92EF92FF920F931F93CF938E
:10078000DF934B015C010E94A903F22FE32F6A0162
:100790007B018C0124013501770C4408542C320173
:1007A0009401A501642D742D842D942DAF2EBE2EA1
:1007B0000E94A606D22FC32F2A013B014C010E94A2
:1007C000A90359016A017B018C012D2F3C2FA20145
:1007D000B301C4010E94AF0609F088F7DF91CF9101
:1007E0001F910F91FF90EF90DF90CF90BF90AF904F
:1007F0009F908F907F906F905F904F900895CF92D1
:10080000DF92EF92FF926B017C011C141D041E0409
:100810001F0464F468EE73E080E090E00E94B1038E
:1008200081E0C81AD108E108F108EFCFFF90EF90FE
:10083000DF90CF9008950C94FF030895DC01149687
:10084000ED91FC911597208116968C91922F98230B
:1008500081E009F480E0089508950895DC0112967E
:100860008D919C911397DC01ED91FC910280F381B5
:10087000E02D0994CF92DF92EF92FF920F931F9396
:10088000CF93DF93EC018A819B81DC01ED91FC9198
:100890000190F081E02D0995EA81FB8103811481AB
:1008A0002581368168017901F694E794D794C7943D
:1008B00021E0C616D706E806F90608F020E0822FE8
:1008C000DF91CF911F910F91FF90EF90DF90CF902C
:1008D0000895DC0112968D919C911397DC01ED91A6
:1008E000FC910280F381E02D0994FC018AE082836F
:1008F0008FEF93E0A0E0B0E083839483A583B68379
:1009000085E491E091838083678380E480937C0019
:1009100087E880937A0008950F931F93CF93DF9316
:10092000EC01162F042F8DE491E099838883862FA4
:100930000E9455009B838A83812F0E946A009D83B9
:100940008C8381E0002E01C0880F0A94EAF78E8321
:10095000602F812F0E949400812F0E947F00FC0154
:1009600020819E81909592239083DF91CF911F915A
:100970000F9108950F931F93CF93DF93EC01162FE0
:10098000042F85E591E099838883862F0E94550086
:100990009B838A8381E0002E01C0880F0A94EAF7C6
:1009A0008C83602F812F0E949400812F0E947F00F2
:1009B000FC0180819C81982B9083DF91CF911F91C6
:1009C0000F9108952DE531E0DC0111963C932E93B3
:1009D00013967C936E931297DB011296ED91FC9126
:1009E0001397908116968C91892B808308958F920E
:1009F0009F92AF92BF92CF92DF92EF92FF920F93AE
:100A00001F93CF93DF93EC0141E062E00E948C04DE
:100A10004E0187E0880E911C42E062E0C4010E9412
:100A20008C045E018EE0A80EB11C43E062E0C501BB
:100A30000E948C046E0185E1C80ED11C44E062E086
:100A4000C6010E948C047E018CE1E80EF11C66E078
:100A5000C7010E9475048E010C5D1F4F67E0C8013D
:100A60000E94750443E063E0CE018C960E94BA04B4
:100A700060E0CE01C1960E947504BE01CE01C99608
:100A80000E94E204B401CE01CD960E94E204B501B9
:100A9000CE018F5B9F4F0E94E204B601CE018B5BBB
:100AA0009F4F0E94E204FE01E75BFF4F85E691E065
:100AB00091838083F382E2823496918380831383CF
:100AC000028343E061E0CE018F5A9F4F0E94BA0437
:100AD00045E061E0CE018A5A9F4F0E94BA0444E08B
:100AE00061E0CE01855A9F4F0E94BA0442E063E064
:100AF000CE01805A9F4F0E94BA0447E063E0CE01C6
:100B00008B599F4F0E94BA0444E063E0CE0186599E
:100B10009F4F0E94BA0440E061E0CE0181599F4F8F
:100B20000E94BA0445E063E0CE018C589F4F0E94BA
:100B3000BA0441E061E0CE0187589F4F0E94BA0499
:100B400046E063E0CE0182589F4F0E94BA0442E023
:100B500061E0CE018D579F4F0E94BA0445E062E0EC
:100B6000CE0188579F4FDF91CF911F910F91FF903A
:100B7000EF90DF90CF90BF90AF909F908F900C94AC
:100B8000BA04CF93DF93EC0102960E94F7048DE63E
:100B900091E099838883FE01E157FF4FCE01805891
:100BA0009F4F9183808332960596918380833296FE
:100BB00005969183808332964997918380833296FC
:100BC0000596918380833296059691838083329631
:100BD00049979183808332960596918380833296DC
:100BE000059691838083CF55DF4F82E1FE011192FC
:100BF0008A95E9F7DF91CF910895FFCFCF93DF93E7
:100C0000CDB7DEB7CB56D1400FB6F894DEBF0FBEDE
:100C1000CDBF7E0185EBE80EF11CC7010E94C10526
:100C200081E391E0D7018D939C938E010F5F1F4F5D
:100C3000C8010E94C1058BE391E09A838983CC545B
:100C4000DF4F1882C45BD040C859DE4FF982E8827A
:100C5000C856D140C659DE4F19830883CA56D140C1
:100C600088E6882E992493948C0E9D1EB4E08B0EFA
:100C7000911CC7010E94B900C8010E943301C7013D
:100C80000E948C02C8010E948C02FE01E859FE4FAE
:100C90005F01D501CD90DD905D01D601ED91FC9114
:100CA0000190F081E02DB701C6010995D601ED91C3
:100CB000FC910190F081E02DB801C6010995A814BE
:100CC000B90439F7C8010E94FF02D3CFA1E21A2E5E
:100CD000AA1BBB1BFD010DC0AA1FBB1FEE1FFF1FE0
:100CE000A217B307E407F50720F0A21BB30BE40B30
:100CF000F50B661F771F881F991F1A9469F7609577
:100D00007095809590959B01AC01BD01CF01089530
:100D100097FB10F8169400080F93083098F00850CD
:100D2000232F342F452F562F672F782F892F902D63
:100D3000F4CF05949795879577956795579547953F
:100D4000379527950A95AAF70F9108952A0D3B1D0F
:100D50004C1D5D1D6E1D7F1D801F911F08952A155E
:100D60003B054C055D056E057F05800791070895DD
:040D7000F894FFCF25
:100D74002E2E2F2E2E2F2E2E2F6C696272617279D9
:100D84002F746172676574732F68776C69622D6163
:100D9400746D6567613332382E687070000000002E
:100DA400005300B900540000000000CA013301FFE1
:100DB4000200000000A4001D04000000001E042C1A
:100DC400040000000014012D040000000024012E82
:100DD40004000000003A046904000000005300FD10
:040DE40005540000B2
:00000001FF
