:100000000C9434000C9451000C9451000C94510049
:100010000C9451000C9451000C9451000C9451001C
:100020000C9451000C9451000C9451000C9451000C
:100030000C9451000C9451000C9451000C945100FC
:100040000C9451000C9451000C9451000C945100EC
:100050000C9451000C9451000C9451000C945100DC
:100060000C9451000C94510011241FBECFEFD8E026
:10007000DEBFCDBF11E0A0E0B1E0E6EAFBE002C0E8
:1000800005900D92A43EB107D9F721E0A4EEB1E0AE
:1000900001C01D92AF3EB207E1F70E94D3040C9459
:1000A000D1050C94000008950895FF920F931F93BB
:1000B000CF93DF93F62E8C010E5F1F4FEC01A296BB
:1000C0000C171D0769F0D8018D919D918D01DC0100
:1000D000ED91FC910190F081E02D6F2D0995F0CF0D
:1000E000DF91CF911F910F91FF9008950F931F9370
:1000F000CF93DF938C010E5F1F4FEC01A2960C177C
:100100001D0761F0D8018D919D918D01DC01ED916C
:10011000FC910280F381E02D0995F1CFDF91CF9121
:100120001F910F910895FC0182810895EF92FF9233
:100130000F931F93CF937C018B01C0E0D7011296E0
:100140008C91C817A0F4F701EC0FF11DEC0FF11D15
:1001500083819481602F6170DC01ED91FC910190AD
:10016000F081E02D099516950795CF5FE7CFCF91E8
:100170001F910F91FF90EF9008950F931F93CF93CE
:100180008C01C0E0D80112968C91C81780F4F80158
:10019000EC0FF11DEC0FF11D83819481DC01ED91D9
:1001A000FC910280F381E02D0995CF5FEBCFCF91D9
:1001B0001F910F910895DC0112968D919C911397D8
:1001C000DC01ED91FC910190F081E02D0994CF9339
:1001D000DF93EC018A819B81DC01ED91FC9102802F
:1001E000F381E02D09958A819B81DC01ED91FC91E1
:1001F0000480F581E02DDF91CF9109940895FFCF20
:100200008F929F92AF92BF92CF92DF92EF92FF9226
:100210000F931F93CF93DF93CDB7DEB7FC0183EA33
:1002200091E0918380837383628355834483378312
:10023000268311870087F386E286D586C486B78633
:10024000A686918A808A8F859889938B828B8989EB
:100250009A89958B848B8B899C89978B868B8D89CA
:100260009E89918F808F8F89988D938F828F898DB2
:100270009A8D958F848F8B8D9C8D978F868F8D8D8A
:100280009E8D91A380A3CF01DF91CF911F910F91FC
:10029000FF90EF90DF90CF90BF90AF909F908F90A6
:1002A00008958F929F92AF92BF92CF92DF92EF927A
:1002B000FF920F931F93CF93DF93CDB7DEB7FC016F
:1002C0008BEA91E0918380837483638356834583B3
:1002D0003087278312870187F486E386D686C58612
:1002E000B08AA786928A818A8F859889948B838B1E
:1002F00089899A89968B858B8B899C89908F878B2E
:100300008D899E89928F818F8F89988D948F838F0D
:10031000898D9A8D968F858F8B8D9C8D90A3878FDD
:100320008D8D9E8D92A381A312828281803178F47B
:10033000DF01A80FB11DA80FB11D13962D913C919F
:1003400014972050314019F08F5F8283EECFCF0198
:10035000DF91CF911F910F91FF90EF90DF90CF90A1
:10036000BF90AF909F908F900895823051F083306E
:1003700071F0813049F064E270E08AE691E00E9419
:10038000FF0088E290E0089585E290E008958BE216
:1003900090E00895823051F0833071F0813049F05F
:1003A00060E370E08AE691E00E94FF0086E290E060
:1003B000089583E290E0089589E290E00895823004
:1003C00051F0833071F0813049F06CE370E08AE6DF
:1003D00091E00E94FF0087E290E0089584E290E0BF
:1003E00008958AE290E00895833069F4611104C0B1
:1003F0008091C1008F7E05C0613029F48091C100D9
:10040000877F8093C1000895CF93DF938091E401AB
:10041000811105C081E0809381008093E401809187
:1004200084002091850090E0FC01F22B8091ED0189
:100430009091EE01E817F90730F52091E501309130
:10044000E6014091E7015091E8016091E901709166
:10045000EA018091EB019091EC014F5F5F4F6F4F8C
:100460007F4F8F4F9F4F2093E5013093E6014093DC
:10047000E7015093E8016093E9017093EA018093EA
:10048000EB019093EC01F093EE01E093ED01CF01CD
:100490002091E501282B3091E601392B4091E701AD
:1004A0005091E8016091E9017091EA018091EB01BE
:1004B0009091EC01DF91CF9108950F930E94040277
:1004C00004E00E94A3050F9108954F925F926F92EE
:1004D0007F928F929F92AF92BF92CF92DF92EF92D4
:1004E000FF920F931F93CF93DF934B015C010E9408
:1004F0005D02F22FE32F6A017B018C01240135019B
:10050000770C4408542C32019401A501642D742DFC
:10051000842D942DAF2EBE2E0E94BF05D22FC32F47
:100520002A013B014C010E945D0259016A017B01D5
:100530008C012D2F3C2FA201B301C4010E94C805DC
:1005400009F088F7DF91CF911F910F91FF90EF9005
:10055000DF90CF90BF90AF909F908F907F906F90E3
:100560005F904F900895CF92DF92EF92FF926B01D0
:100570007C011C141D041E041F0464F468EE73E067
:1005800080E090E00E94650281E0C81AD108E1088D
:10059000F108EFCFFF90EF90DF90CF9008950C948B
:1005A000B302CF93DF9300D000D0CDB7DEB725EBF9
:1005B00031E03A8329839C838B83AA24A394B12CB2
:1005C0006B01E12CF12C10E0CE0101960E94DB00C2
:1005D0001817C8F7B501012E02C0660F771F0A94DD
:1005E000E2F7CE0101960E94E700C701B6010E9422
:1005F000CF021F5FE9CFFC018781806480937C007C
:1006000080917A00806480937A0080917A0086FDE0
:10061000FCCF609178007091790080E090E00895BF
:100620000895DC011496ED91FC91159720811696A2
:100630008C91922F982381E009F480E00895089529
:10064000DC011296ED91FC91139714968C91908198
:10065000662311F0892B02C0809589238083089539
:100660000895DC0112968D919C911397DC01ED9118
:10067000FC910190F081E02D099591E08927089582
:10068000DC0112968D919C911397DC01ED91FC9108
:100690000280F381E02D0994CF92DF92EF92FF92D6
:1006A0000F931F93CF93DF93EC018A819B81DC0131
:1006B000ED91FC910190F081E02D0995EA81FB819B
:1006C000038114812581368168017901F694E794CC
:1006D000D794C79421E0C616D706E806F90608F0B5
:1006E00020E0822FDF91CF911F910F91FF90EF902B
:1006F000DF90CF900895DC0112968D919C91139715
:10070000DC01ED91FC910280F381E02D0994FC0164
:100710008AE082838FEF93E0A0E0B0E0838394834C
:10072000A583B6838FEB91E091838083678380E418
:1007300080937C0087E880937A0008950F931F933D
:10074000CF93DF93EC01162F042F87EC91E0998370
:100750008883862F0E94B5019B838A83812F0E9404
:10076000CA019D838C8381E0002E01C0880F0A940A
:10077000EAF78E83602F812F0E94F401812F0E945F
:10078000DF01FC0120819E81909592239083DF916F
:10079000CF911F910F9108950F931F93CF93DF93E4
:1007A000EC01162F042F8FEC91E099838883862F1C
:1007B0000E94B5019B838A8381E0002E01C0880FCF
:1007C0000A94EAF78C83602F812F0E94F401812F15
:1007D0000E94DF01FC0180819C81982B9083DF9136
:1007E000CF911F910F91089527ED31E0DC01119613
:1007F0003C932E9313967C936E931297DB01129683
:10080000ED91FC911397908116968C91892B8083A2
:1008100008958F929F92AF92BF92CF92DF92EF9204
:10082000FF920F931F93CF93DF93EC0141E062E0BF
:100830000E949E034E0187E0880E911C42E062E018
:10084000C4010E949E035E018EE0A80EB11C43E02D
:1008500062E0C5010E949E036E0185E1C80ED11CB5
:1008600044E062E0C6010E949E037E018CE1E80E36
:10087000F11C66E0C7010E9487038E010C5D1F4FCB
:1008800067E0C8010E94870343E063E0CE018C96D5
:100890000E94CC0360E0CE01C1960E948703BE0196
:1008A000CE01C9960E94F403B401CE01CD960E94F8
:1008B000F403B501CE018F5B9F4F0E94F403B60194
:1008C000CE018B5B9F4F0E94F403FE01E75BFF4F5D
:1008D0008FED91E091838083F382E282349691835D
:1008E00080831383028343E061E0CE018F5A9F4FE0
:1008F0000E94CC0345E061E0CE018A5A9F4F0E94DE
:10090000CC0344E061E0CE01855A9F4F0E94CC03A6
:1009100042E063E0CE01805A9F4F0E94CC0347E043
:1009200063E0CE018B599F4F0E94CC0344E063E00B
:10093000CE0186599F4F0E94CC0340E061E0CE017A
:1009400081599F4F0E94CC0345E063E0CE018C5853
:100950009F4F0E94CC0341E061E0CE0187589F4F3A
:100960000E94CC0346E063E0CE0182589F4F0E9474
:10097000CC0342E061E0CE018D579F4F0E94CC0333
:1009800045E062E0CE0188579F4FDF91CF911F91E4
:100990000F91FF90EF90DF90CF90BF90AF909F901E
:1009A0008F900C94CC038F929F92AF92BF92CF9274
:1009B000DF92EF92FF920F931F93CF93DF93CDB708
:1009C000DEB7C25DD1090FB6F894DEBF0FBECDBF52
:1009D000CE0101960E94090480E091E09F938F93DD
:1009E0009F938F939F938F939F938F939F938F93B7
:1009F0009F938F939F938F93CE0187579F4F9F9382
:100A00008F9305974C01DE01A158BF4F5D01FE0198
:100A1000E658FF4F6F010F977C018E0100591F4F61
:100A20009E0125593F4FAE014A595F4FBE016F5994
:100A30007F4FCC960E9400010FB6F894DEBF0FBE28
:100A4000CDBF01EB10E00C0F1D1F0E5F1F4F91EB90
:100A5000E92EF12CEC0EFD1EB2E2EB0EF11CF801BA
:100A6000819191918F01DC01ED91FC910190F081D8
:100A7000E02D61E009950E151F0589F781EBE82E41
:100A8000F12CEC0EFD1EB2E0EB0EF11C01EB10E0C0
:100A90000C0F1D1F0E5D1F4FF701819191917F017A
:100AA000DC01ED91FC910280F381E02D0995E016C7
:100AB000F10691F780E091E09F938F939F938F933E
:100AC0009F938F939F938F939F938F939F938F93D6
:100AD0009F938F939F938F934C015C016C017C01DA
:100AE0008C019E01245A3F4FAE01495A5F4FBE010F
:100AF0006E5A7F4FCE0182579F4F0E94510168EE80
:100B000073E0CE0182579F4F0E94D1020FB6F89436
:100B1000DEBF0FBECDBF80E090E0CE52DF4F0FB6FC
:100B2000F894DEBF0FBECDBFDF91CF911F910F9123
:100B3000FF90EF90DF90CF90BF90AF909F908F90FD
:100B4000089597FB10F8169400080F93083098F05A
:100B50000850232F342F452F562F672F782F892F9A
:100B6000902DF4CF05949795879577956795579530
:100B70004795379527950A95AAF70F9108952A0D5D
:100B80003B1D4C1D5D1D6E1D7F1D801F911F089517
:100B90002A153B054C055D056E057F05800791070D
:060BA0000895F894FFCF58
:100BA6009B015B003A000A54657374207375636396
:100BB6006573733A200020746573742077657265D7
:100BC600207375636365737366756C6C0A000A54EB
:100BD600455354204641494C5552453A200020740D
:100BE6006573742077657265204E4F542073756364
:100BF6006365737366756C6C0A005B7472616E7301
:100C0600706172656E745D002C002E2E2F2E2E2FB5
:100C16002E2E2F6C6962726172792F74617267650C
:100C260074732F68776C69622D61746D65676133C3
:100C360032382E6870700000000000530054000027
:100C4600000000550076000000000093009600BDED
:100C56000000000000DB00E700FE0000000000FBD3
:100C66000210030000000011031F03000000002013
:100C76000330030000000031034003000000004C75
:040C8600037B0300E9
:00000001FF
